{
  "_format": "hh-sol-artifact-1",
  "contractName": "X1Coin",
  "sourceName": "contracts/X1Coin.sol",
  "abi": [
    {
      "inputs": [
        {
          "internalType": "address",
          "name": "teamWallet",
          "type": "address"
        },
        {
          "internalType": "address",
          "name": "communityWallet",
          "type": "address"
        }
      ],
      "stateMutability": "nonpayable",
      "type": "constructor"
    },
    {
      "inputs": [
        {
          "internalType": "address",
          "name": "spender",
          "type": "address"
        },
        {
          "internalType": "uint256",
          "name": "allowance",
          "type": "uint256"
        },
        {
          "internalType": "uint256",
          "name": "needed",
          "type": "uint256"
        }
      ],
      "name": "ERC20InsufficientAllowance",
      "type": "error"
    },
    {
      "inputs": [
        {
          "internalType": "address",
          "name": "sender",
          "type": "address"
        },
        {
          "internalType": "uint256",
          "name": "balance",
          "type": "uint256"
        },
        {
          "internalType": "uint256",
          "name": "needed",
          "type": "uint256"
        }
      ],
      "name": "ERC20InsufficientBalance",
      "type": "error"
    },
    {
      "inputs": [
        {
          "internalType": "address",
          "name": "approver",
          "type": "address"
        }
      ],
      "name": "ERC20InvalidApprover",
      "type": "error"
    },
    {
      "inputs": [
        {
          "internalType": "address",
          "name": "receiver",
          "type": "address"
        }
      ],
      "name": "ERC20InvalidReceiver",
      "type": "error"
    },
    {
      "inputs": [
        {
          "internalType": "address",
          "name": "sender",
          "type": "address"
        }
      ],
      "name": "ERC20InvalidSender",
      "type": "error"
    },
    {
      "inputs": [
        {
          "internalType": "address",
          "name": "spender",
          "type": "address"
        }
      ],
      "name": "ERC20InvalidSpender",
      "type": "error"
    },
    {
      "inputs": [
        {
          "internalType": "address",
          "name": "owner",
          "type": "address"
        }
      ],
      "name": "OwnableInvalidOwner",
      "type": "error"
    },
    {
      "inputs": [
        {
          "internalType": "address",
          "name": "account",
          "type": "address"
        }
      ],
      "name": "OwnableUnauthorizedAccount",
      "type": "error"
    },
    {
      "anonymous": false,
      "inputs": [
        {
          "indexed": true,
          "internalType": "address",
          "name": "owner",
          "type": "address"
        },
        {
          "indexed": true,
          "internalType": "address",
          "name": "spender",
          "type": "address"
        },
        {
          "indexed": false,
          "internalType": "uint256",
          "name": "value",
          "type": "uint256"
        }
      ],
      "name": "Approval",
      "type": "event"
    },
    {
      "anonymous": false,
      "inputs": [
        {
          "indexed": true,
          "internalType": "address",
          "name": "previousOwner",
          "type": "address"
        },
        {
          "indexed": true,
          "internalType": "address",
          "name": "newOwner",
          "type": "address"
        }
      ],
      "name": "OwnershipTransferred",
      "type": "event"
    },
    {
      "anonymous": false,
      "inputs": [
        {
          "indexed": true,
          "internalType": "address",
          "name": "from",
          "type": "address"
        },
        {
          "indexed": true,
          "internalType": "address",
          "name": "to",
          "type": "address"
        },
        {
          "indexed": false,
          "internalType": "uint256",
          "name": "value",
          "type": "uint256"
        }
      ],
      "name": "Transfer",
      "type": "event"
    },
    {
      "inputs": [],
      "name": "LOCK_PERIOD",
      "outputs": [
        {
          "internalType": "uint256",
          "name": "",
          "type": "uint256"
        }
      ],
      "stateMutability": "view",
      "type": "function"
    },
    {
      "inputs": [
        {
          "internalType": "address",
          "name": "owner",
          "type": "address"
        },
        {
          "internalType": "address",
          "name": "spender",
          "type": "address"
        }
      ],
      "name": "allowance",
      "outputs": [
        {
          "internalType": "uint256",
          "name": "",
          "type": "uint256"
        }
      ],
      "stateMutability": "view",
      "type": "function"
    },
    {
      "inputs": [
        {
          "internalType": "address",
          "name": "spender",
          "type": "address"
        },
        {
          "internalType": "uint256",
          "name": "value",
          "type": "uint256"
        }
      ],
      "name": "approve",
      "outputs": [
        {
          "internalType": "bool",
          "name": "",
          "type": "bool"
        }
      ],
      "stateMutability": "nonpayable",
      "type": "function"
    },
    {
      "inputs": [
        {
          "internalType": "address",
          "name": "account",
          "type": "address"
        }
      ],
      "name": "balanceOf",
      "outputs": [
        {
          "internalType": "uint256",
          "name": "",
          "type": "uint256"
        }
      ],
      "stateMutability": "view",
      "type": "function"
    },
    {
      "inputs": [],
      "name": "decimals",
      "outputs": [
        {
          "internalType": "uint8",
          "name": "",
          "type": "uint8"
        }
      ],
      "stateMutability": "view",
      "type": "function"
    },
    {
      "inputs": [],
      "name": "name",
      "outputs": [
        {
          "internalType": "string",
          "name": "",
          "type": "string"
        }
      ],
      "stateMutability": "view",
      "type": "function"
    },
    {
      "inputs": [],
      "name": "owner",
      "outputs": [
        {
          "internalType": "address",
          "name": "",
          "type": "address"
        }
      ],
      "stateMutability": "view",
      "type": "function"
    },
    {
      "inputs": [],
      "name": "renounceOwnership",
      "outputs": [],
      "stateMutability": "nonpayable",
      "type": "function"
    },
    {
      "inputs": [],
      "name": "symbol",
      "outputs": [
        {
          "internalType": "string",
          "name": "",
          "type": "string"
        }
      ],
      "stateMutability": "view",
      "type": "function"
    },
    {
      "inputs": [],
      "name": "totalSupply",
      "outputs": [
        {
          "internalType": "uint256",
          "name": "",
          "type": "uint256"
        }
      ],
      "stateMutability": "view",
      "type": "function"
    },
    {
      "inputs": [
        {
          "internalType": "address",
          "name": "recipient",
          "type": "address"
        },
        {
          "internalType": "uint256",
          "name": "amount",
          "type": "uint256"
        }
      ],
      "name": "transfer",
      "outputs": [
        {
          "internalType": "bool",
          "name": "",
          "type": "bool"
        }
      ],
      "stateMutability": "nonpayable",
      "type": "function"
    },
    {
      "inputs": [
        {
          "internalType": "address",
          "name": "from",
          "type": "address"
        },
        {
          "internalType": "address",
          "name": "to",
          "type": "address"
        },
        {
          "internalType": "uint256",
          "name": "value",
          "type": "uint256"
        }
      ],
      "name": "transferFrom",
      "outputs": [
        {
          "internalType": "bool",
          "name": "",
          "type": "bool"
        }
      ],
      "stateMutability": "nonpayable",
      "type": "function"
    },
    {
      "inputs": [
        {
          "internalType": "address",
          "name": "newOwner",
          "type": "address"
        }
      ],
      "name": "transferOwnership",
      "outputs": [],
      "stateMutability": "nonpayable",
      "type": "function"
    }
  ],
  "bytecode": "0x60806040523480156200001157600080fd5b506040516200210238038062002102833981810160405281019062000037919062000747565b336040518060400160405280600681526020017f5831436f696e00000000000000000000000000000000000000000000000000008152506040518060400160405280600381526020017f58314300000000000000000000000000000000000000000000000000000000008152508160039081620000b5919062000a08565b508060049081620000c7919062000a08565b505050600073ffffffffffffffffffffffffffffffffffffffff168173ffffffffffffffffffffffffffffffffffffffff16036200013f5760006040517f1e4fbdf700000000000000000000000000000000000000000000000000000000815260040162000136919062000b00565b60405180910390fd5b62000150816200035160201b60201c565b50600073ffffffffffffffffffffffffffffffffffffffff168273ffffffffffffffffffffffffffffffffffffffff1603620001c3576040517f08c379a0000000000000000000000000000000000000000000000000000000008152600401620001ba9062000b7e565b60405180910390fd5b600073ffffffffffffffffffffffffffffffffffffffff168173ffffffffffffffffffffffffffffffffffffffff160362000235576040517f08c379a00000000000000000000000000000000000000000000000000000000081526004016200022c9062000bf0565b60405180910390fd5b62000275336200024a6200041760201b60201c565b600a62000258919062000da2565b631dcd650062000269919062000df3565b6200042060201b60201c565b620002b5826200028a6200041760201b60201c565b600a62000298919062000da2565b6311e1a300620002a9919062000df3565b6200042060201b60201c565b620002f581620002ca6200041760201b60201c565b600a620002d8919062000da2565b630bebc200620002e9919062000df3565b6200042060201b60201c565b62ed4e004262000306919062000e3e565b600660008473ffffffffffffffffffffffffffffffffffffffff1673ffffffffffffffffffffffffffffffffffffffff16815260200190815260200160002081905550505062000ee4565b6000600560009054906101000a900473ffffffffffffffffffffffffffffffffffffffff16905081600560006101000a81548173ffffffffffffffffffffffffffffffffffffffff021916908373ffffffffffffffffffffffffffffffffffffffff1602179055508173ffffffffffffffffffffffffffffffffffffffff168173ffffffffffffffffffffffffffffffffffffffff167f8be0079c531659141344cd1fd0a4f28419497f9722a3daafe3b4186f6b6457e060405160405180910390a35050565b60006012905090565b600073ffffffffffffffffffffffffffffffffffffffff168273ffffffffffffffffffffffffffffffffffffffff1603620004955760006040517fec442f050000000000000000000000000000000000000000000000000000000081526004016200048c919062000b00565b60405180910390fd5b620004a960008383620004ad60201b60201c565b5050565b600073ffffffffffffffffffffffffffffffffffffffff168373ffffffffffffffffffffffffffffffffffffffff160362000503578060026000828254620004f6919062000e3e565b92505081905550620005d9565b60008060008573ffffffffffffffffffffffffffffffffffffffff1673ffffffffffffffffffffffffffffffffffffffff1681526020019081526020016000205490508181101562000592578381836040517fe450d38c000000000000000000000000000000000000000000000000000000008152600401620005899392919062000e8a565b60405180910390fd5b8181036000808673ffffffffffffffffffffffffffffffffffffffff1673ffffffffffffffffffffffffffffffffffffffff16815260200190815260200160002081905550505b600073ffffffffffffffffffffffffffffffffffffffff168273ffffffffffffffffffffffffffffffffffffffff160362000624578060026000828254039250508190555062000671565b806000808473ffffffffffffffffffffffffffffffffffffffff1673ffffffffffffffffffffffffffffffffffffffff168152602001908152602001600020600082825401925050819055505b8173ffffffffffffffffffffffffffffffffffffffff168373ffffffffffffffffffffffffffffffffffffffff167fddf252ad1be2c89b69c2b068fc378daa952ba7f163c4a11628f55a4df523b3ef83604051620006d0919062000ec7565b60405180910390a3505050565b600080fd5b600073ffffffffffffffffffffffffffffffffffffffff82169050919050565b60006200070f82620006e2565b9050919050565b620007218162000702565b81146200072d57600080fd5b50565b600081519050620007418162000716565b92915050565b60008060408385031215620007615762000760620006dd565b5b6000620007718582860162000730565b9250506020620007848582860162000730565b9150509250929050565b600081519050919050565b7f4e487b7100000000000000000000000000000000000000000000000000000000600052604160045260246000fd5b7f4e487b7100000000000000000000000000000000000000000000000000000000600052602260045260246000fd5b600060028204905060018216806200081057607f821691505b602082108103620008265762000825620007c8565b5b50919050565b60008190508160005260206000209050919050565b60006020601f8301049050919050565b600082821b905092915050565b600060088302620008907fffffffffffffffffffffffffffffffffffffffffffffffffffffffffffffffff8262000851565b6200089c868362000851565b95508019841693508086168417925050509392505050565b6000819050919050565b6000819050919050565b6000620008e9620008e3620008dd84620008b4565b620008be565b620008b4565b9050919050565b6000819050919050565b6200090583620008c8565b6200091d6200091482620008f0565b8484546200085e565b825550505050565b600090565b6200093462000925565b62000941818484620008fa565b505050565b5b8181101562000969576200095d6000826200092a565b60018101905062000947565b5050565b601f821115620009b85762000982816200082c565b6200098d8462000841565b810160208510156200099d578190505b620009b5620009ac8562000841565b83018262000946565b50505b505050565b600082821c905092915050565b6000620009dd60001984600802620009bd565b1980831691505092915050565b6000620009f88383620009ca565b9150826002028217905092915050565b62000a13826200078e565b67ffffffffffffffff81111562000a2f5762000a2e62000799565b5b62000a3b8254620007f7565b62000a488282856200096d565b600060209050601f83116001811462000a80576000841562000a6b578287015190505b62000a778582620009ea565b86555062000ae7565b601f19841662000a90866200082c565b60005b8281101562000aba5784890151825560018201915060208501945060208101905062000a93565b8683101562000ada578489015162000ad6601f891682620009ca565b8355505b6001600288020188555050505b505050505050565b62000afa8162000702565b82525050565b600060208201905062000b17600083018462000aef565b92915050565b600082825260208201905092915050565b7f496e76616c6964207465616d2077616c6c657400000000000000000000000000600082015250565b600062000b6660138362000b1d565b915062000b738262000b2e565b602082019050919050565b6000602082019050818103600083015262000b998162000b57565b9050919050565b7f496e76616c696420636f6d6d756e6974792077616c6c65740000000000000000600082015250565b600062000bd860188362000b1d565b915062000be58262000ba0565b602082019050919050565b6000602082019050818103600083015262000c0b8162000bc9565b9050919050565b7f4e487b7100000000000000000000000000000000000000000000000000000000600052601160045260246000fd5b60008160011c9050919050565b6000808291508390505b600185111562000ca05780860481111562000c785762000c7762000c12565b5b600185161562000c885780820291505b808102905062000c988562000c41565b945062000c58565b94509492505050565b60008262000cbb576001905062000d8e565b8162000ccb576000905062000d8e565b816001811462000ce4576002811462000cef5762000d25565b600191505062000d8e565b60ff84111562000d045762000d0362000c12565b5b8360020a91508482111562000d1e5762000d1d62000c12565b5b5062000d8e565b5060208310610133831016604e8410600b841016171562000d5f5782820a90508381111562000d595762000d5862000c12565b5b62000d8e565b62000d6e848484600162000c4e565b9250905081840481111562000d885762000d8762000c12565b5b81810290505b9392505050565b600060ff82169050919050565b600062000daf82620008b4565b915062000dbc8362000d95565b925062000deb7fffffffffffffffffffffffffffffffffffffffffffffffffffffffffffffffff848462000ca9565b905092915050565b600062000e0082620008b4565b915062000e0d83620008b4565b925082820262000e1d81620008b4565b9150828204841483151762000e375762000e3662000c12565b5b5092915050565b600062000e4b82620008b4565b915062000e5883620008b4565b925082820190508082111562000e735762000e7262000c12565b5b92915050565b62000e8481620008b4565b82525050565b600060608201905062000ea1600083018662000aef565b62000eb0602083018562000e79565b62000ebf604083018462000e79565b949350505050565b600060208201905062000ede600083018462000e79565b92915050565b61120e8062000ef46000396000f3fe608060405234801561001057600080fd5b50600436106100cf5760003560e01c806370a082311161008c57806395d89b411161006657806395d89b4114610204578063a9059cbb14610222578063dd62ed3e14610252578063f2fde38b14610282576100cf565b806370a08231146101ac578063715018a6146101dc5780638da5cb5b146101e6576100cf565b806306fdde03146100d4578063095ea7b3146100f257806318160ddd146101225780631820cabb1461014057806323b872dd1461015e578063313ce5671461018e575b600080fd5b6100dc61029e565b6040516100e99190610df6565b60405180910390f35b61010c60048036038101906101079190610eb1565b610330565b6040516101199190610f0c565b60405180910390f35b61012a610353565b6040516101379190610f36565b60405180910390f35b61014861035d565b6040516101559190610f36565b60405180910390f35b61017860048036038101906101739190610f51565b610364565b6040516101859190610f0c565b60405180910390f35b610196610393565b6040516101a39190610fc0565b60405180910390f35b6101c660048036038101906101c19190610fdb565b61039c565b6040516101d39190610f36565b60405180910390f35b6101e46103e4565b005b6101ee6103f8565b6040516101fb9190611017565b60405180910390f35b61020c610422565b6040516102199190610df6565b60405180910390f35b61023c60048036038101906102379190610eb1565b6104b4565b6040516102499190610f0c565b60405180910390f35b61026c60048036038101906102679190611032565b61054a565b6040516102799190610f36565b60405180910390f35b61029c60048036038101906102979190610fdb565b6105d1565b005b6060600380546102ad906110a1565b80601f01602080910402602001604051908101604052809291908181526020018280546102d9906110a1565b80156103265780601f106102fb57610100808354040283529160200191610326565b820191906000526020600020905b81548152906001019060200180831161030957829003601f168201915b5050505050905090565b60008061033b610657565b905061034881858561065f565b600191505092915050565b6000600254905090565b62ed4e0081565b60008061036f610657565b905061037c858285610671565b610387858585610706565b60019150509392505050565b60006012905090565b60008060008373ffffffffffffffffffffffffffffffffffffffff1673ffffffffffffffffffffffffffffffffffffffff168152602001908152602001600020549050919050565b6103ec6107fa565b6103f66000610881565b565b6000600560009054906101000a900473ffffffffffffffffffffffffffffffffffffffff16905090565b606060048054610431906110a1565b80601f016020809104026020016040519081016040528092919081815260200182805461045d906110a1565b80156104aa5780601f1061047f576101008083540402835291602001916104aa565b820191906000526020600020905b81548152906001019060200180831161048d57829003601f168201915b5050505050905090565b6000600660003373ffffffffffffffffffffffffffffffffffffffff1673ffffffffffffffffffffffffffffffffffffffff16815260200190815260200160002054421015610538576040517f08c379a000000000000000000000000000000000000000000000000000000000815260040161052f9061111e565b60405180910390fd5b6105428383610947565b905092915050565b6000600160008473ffffffffffffffffffffffffffffffffffffffff1673ffffffffffffffffffffffffffffffffffffffff16815260200190815260200160002060008373ffffffffffffffffffffffffffffffffffffffff1673ffffffffffffffffffffffffffffffffffffffff16815260200190815260200160002054905092915050565b6105d96107fa565b600073ffffffffffffffffffffffffffffffffffffffff168173ffffffffffffffffffffffffffffffffffffffff160361064b5760006040517f1e4fbdf70000000000000000000000000000000000000000000000000000000081526004016106429190611017565b60405180910390fd5b61065481610881565b50565b600033905090565b61066c838383600161096a565b505050565b600061067d848461054a565b90507fffffffffffffffffffffffffffffffffffffffffffffffffffffffffffffffff81101561070057818110156106f0578281836040517ffb8f41b20000000000000000000000000000000000000000000000000000000081526004016106e79392919061113e565b60405180910390fd5b6106ff8484848403600061096a565b5b50505050565b600073ffffffffffffffffffffffffffffffffffffffff168373ffffffffffffffffffffffffffffffffffffffff16036107785760006040517f96c6fd1e00000000000000000000000000000000000000000000000000000000815260040161076f9190611017565b60405180910390fd5b600073ffffffffffffffffffffffffffffffffffffffff168273ffffffffffffffffffffffffffffffffffffffff16036107ea5760006040517fec442f050000000000000000000000000000000000000000000000000000000081526004016107e19190611017565b60405180910390fd5b6107f5838383610b41565b505050565b610802610657565b73ffffffffffffffffffffffffffffffffffffffff166108206103f8565b73ffffffffffffffffffffffffffffffffffffffff161461087f57610843610657565b6040517f118cdaa70000000000000000000000000000000000000000000000000000000081526004016108769190611017565b60405180910390fd5b565b6000600560009054906101000a900473ffffffffffffffffffffffffffffffffffffffff16905081600560006101000a81548173ffffffffffffffffffffffffffffffffffffffff021916908373ffffffffffffffffffffffffffffffffffffffff1602179055508173ffffffffffffffffffffffffffffffffffffffff168173ffffffffffffffffffffffffffffffffffffffff167f8be0079c531659141344cd1fd0a4f28419497f9722a3daafe3b4186f6b6457e060405160405180910390a35050565b600080610952610657565b905061095f818585610706565b600191505092915050565b600073ffffffffffffffffffffffffffffffffffffffff168473ffffffffffffffffffffffffffffffffffffffff16036109dc5760006040517fe602df050000000000000000000000000000000000000000000000000000000081526004016109d39190611017565b60405180910390fd5b600073ffffffffffffffffffffffffffffffffffffffff168373ffffffffffffffffffffffffffffffffffffffff1603610a4e5760006040517f94280d62000000000000000000000000000000000000000000000000000000008152600401610a459190611017565b60405180910390fd5b81600160008673ffffffffffffffffffffffffffffffffffffffff1673ffffffffffffffffffffffffffffffffffffffff16815260200190815260200160002060008573ffffffffffffffffffffffffffffffffffffffff1673ffffffffffffffffffffffffffffffffffffffff168152602001908152602001600020819055508015610b3b578273ffffffffffffffffffffffffffffffffffffffff168473ffffffffffffffffffffffffffffffffffffffff167f8c5be1e5ebec7d5bd14f71427d1e84f3dd0314c0f7b2291e5b200ac8c7c3b92584604051610b329190610f36565b60405180910390a35b50505050565b600073ffffffffffffffffffffffffffffffffffffffff168373ffffffffffffffffffffffffffffffffffffffff1603610b93578060026000828254610b8791906111a4565b92505081905550610c66565b60008060008573ffffffffffffffffffffffffffffffffffffffff1673ffffffffffffffffffffffffffffffffffffffff16815260200190815260200160002054905081811015610c1f578381836040517fe450d38c000000000000000000000000000000000000000000000000000000008152600401610c169392919061113e565b60405180910390fd5b8181036000808673ffffffffffffffffffffffffffffffffffffffff1673ffffffffffffffffffffffffffffffffffffffff16815260200190815260200160002081905550505b600073ffffffffffffffffffffffffffffffffffffffff168273ffffffffffffffffffffffffffffffffffffffff1603610caf5780600260008282540392505081905550610cfc565b806000808473ffffffffffffffffffffffffffffffffffffffff1673ffffffffffffffffffffffffffffffffffffffff168152602001908152602001600020600082825401925050819055505b8173ffffffffffffffffffffffffffffffffffffffff168373ffffffffffffffffffffffffffffffffffffffff167fddf252ad1be2c89b69c2b068fc378daa952ba7f163c4a11628f55a4df523b3ef83604051610d599190610f36565b60405180910390a3505050565b600081519050919050565b600082825260208201905092915050565b60005b83811015610da0578082015181840152602081019050610d85565b60008484015250505050565b6000601f19601f8301169050919050565b6000610dc882610d66565b610dd28185610d71565b9350610de2818560208601610d82565b610deb81610dac565b840191505092915050565b60006020820190508181036000830152610e108184610dbd565b905092915050565b600080fd5b600073ffffffffffffffffffffffffffffffffffffffff82169050919050565b6000610e4882610e1d565b9050919050565b610e5881610e3d565b8114610e6357600080fd5b50565b600081359050610e7581610e4f565b92915050565b6000819050919050565b610e8e81610e7b565b8114610e9957600080fd5b50565b600081359050610eab81610e85565b92915050565b60008060408385031215610ec857610ec7610e18565b5b6000610ed685828601610e66565b9250506020610ee785828601610e9c565b9150509250929050565b60008115159050919050565b610f0681610ef1565b82525050565b6000602082019050610f216000830184610efd565b92915050565b610f3081610e7b565b82525050565b6000602082019050610f4b6000830184610f27565b92915050565b600080600060608486031215610f6a57610f69610e18565b5b6000610f7886828701610e66565b9350506020610f8986828701610e66565b9250506040610f9a86828701610e9c565b9150509250925092565b600060ff82169050919050565b610fba81610fa4565b82525050565b6000602082019050610fd56000830184610fb1565b92915050565b600060208284031215610ff157610ff0610e18565b5b6000610fff84828501610e66565b91505092915050565b61101181610e3d565b82525050565b600060208201905061102c6000830184611008565b92915050565b6000806040838503121561104957611048610e18565b5b600061105785828601610e66565b925050602061106885828601610e66565b9150509250929050565b7f4e487b7100000000000000000000000000000000000000000000000000000000600052602260045260246000fd5b600060028204905060018216806110b957607f821691505b6020821081036110cc576110cb611072565b5b50919050565b7f546f6b656e7320617265206c6f636b6564210000000000000000000000000000600082015250565b6000611108601283610d71565b9150611113826110d2565b602082019050919050565b60006020820190508181036000830152611137816110fb565b9050919050565b60006060820190506111536000830186611008565b6111606020830185610f27565b61116d6040830184610f27565b949350505050565b7f4e487b7100000000000000000000000000000000000000000000000000000000600052601160045260246000fd5b60006111af82610e7b565b91506111ba83610e7b565b92508282019050808211156111d2576111d1611175565b5b9291505056fea2646970667358221220554812e10cba491021f64032db4c2b3866c3eca60316f553032572632604f1d464736f6c63430008140033",
  "linkReferences": {},
  "deployedLinkReferences": {}
}