{
  "_format": "hh-sol-artifact-1",
  "contractName": "Staking",
  "sourceName": "contracts/Staking.sol",
  "abi": [
    {
      "inputs": [
        {
          "internalType": "address",
          "name": "_token",
          "type": "address"
        }
      ],
      "stateMutability": "nonpayable",
      "type": "constructor"
    },
    {
      "inputs": [],
      "name": "REWARD_RATE",
      "outputs": [
        {
          "internalType": "uint256",
          "name": "",
          "type": "uint256"
        }
      ],
      "stateMutability": "view",
      "type": "function"
    },
    {
      "inputs": [
        {
          "internalType": "uint256",
          "name": "amount",
          "type": "uint256"
        }
      ],
      "name": "stake",
      "outputs": [],
      "stateMutability": "nonpayable",
      "type": "function"
    },
    {
      "inputs": [
        {
          "internalType": "address",
          "name": "",
          "type": "address"
        }
      ],
      "name": "stakes",
      "outputs": [
        {
          "internalType": "uint256",
          "name": "amount",
          "type": "uint256"
        },
        {
          "internalType": "uint256",
          "name": "timestamp",
          "type": "uint256"
        }
      ],
      "stateMutability": "view",
      "type": "function"
    },
    {
      "inputs": [],
      "name": "token",
      "outputs": [
        {
          "internalType": "contract IERC20",
          "name": "",
          "type": "address"
        }
      ],
      "stateMutability": "view",
      "type": "function"
    },
    {
      "inputs": [],
      "name": "unstake",
      "outputs": [],
      "stateMutability": "nonpayable",
      "type": "function"
    }
  ],
  "bytecode": "0x60806040523480156200001157600080fd5b5060405162000d1038038062000d10833981810160405281019062000037919062000163565b6001600081905550600073ffffffffffffffffffffffffffffffffffffffff168173ffffffffffffffffffffffffffffffffffffffff1603620000b1576040517f08c379a0000000000000000000000000000000000000000000000000000000008152600401620000a890620001f6565b60405180910390fd5b80600160006101000a81548173ffffffffffffffffffffffffffffffffffffffff021916908373ffffffffffffffffffffffffffffffffffffffff1602179055505062000218565b600080fd5b600073ffffffffffffffffffffffffffffffffffffffff82169050919050565b60006200012b82620000fe565b9050919050565b6200013d816200011e565b81146200014957600080fd5b50565b6000815190506200015d8162000132565b92915050565b6000602082840312156200017c576200017b620000f9565b5b60006200018c848285016200014c565b91505092915050565b600082825260208201905092915050565b7f496e76616c696420746f6b656e20616464726573730000000000000000000000600082015250565b6000620001de60158362000195565b9150620001eb82620001a6565b602082019050919050565b600060208201905081810360008301526200021181620001cf565b9050919050565b610ae880620002286000396000f3fe608060405234801561001057600080fd5b50600436106100575760003560e01c806316934fc41461005c5780632def66201461008d5780635997bb3714610097578063a694fc3a146100b5578063fc0c546a146100d1575b600080fd5b610076600480360381019061007191906105f3565b6100ef565b604051610084929190610639565b60405180910390f35b610095610113565b005b61009f6103bc565b6040516100ac9190610662565b60405180910390f35b6100cf60048036038101906100ca91906106a9565b6103c1565b005b6100d961056a565b6040516100e69190610735565b60405180910390f35b60026020528060005260406000206000915090508060000154908060010154905082565b600260005403610158576040517f08c379a000000000000000000000000000000000000000000000000000000000815260040161014f906107ad565b60405180910390fd5b600260008190555062278d00600260003373ffffffffffffffffffffffffffffffffffffffff1673ffffffffffffffffffffffffffffffffffffffff168152602001908152602001600020600101546101b191906107fc565b4210156101f3576040517f08c379a00000000000000000000000000000000000000000000000000000000081526004016101ea9061087c565b60405180910390fd5b6000600260003373ffffffffffffffffffffffffffffffffffffffff1673ffffffffffffffffffffffffffffffffffffffff168152602001908152602001600020600001549050600063bbf81e00600260003373ffffffffffffffffffffffffffffffffffffffff1673ffffffffffffffffffffffffffffffffffffffff168152602001908152602001600020600101544261028f919061089c565b600a8461029c91906108d0565b6102a691906108d0565b6102b09190610941565b9050600160009054906101000a900473ffffffffffffffffffffffffffffffffffffffff1673ffffffffffffffffffffffffffffffffffffffff1663a9059cbb3383856102fd91906107fc565b6040518363ffffffff1660e01b815260040161031a929190610981565b6020604051808303816000875af1158015610339573d6000803e3d6000fd5b505050506040513d601f19601f8201168201806040525081019061035d91906109e2565b50600260003373ffffffffffffffffffffffffffffffffffffffff1673ffffffffffffffffffffffffffffffffffffffff1681526020019081526020016000206000808201600090556001820160009055505050506001600081905550565b600a81565b600260005403610406576040517f08c379a00000000000000000000000000000000000000000000000000000000081526004016103fd906107ad565b60405180910390fd5b600260008190555060008111610451576040517f08c379a000000000000000000000000000000000000000000000000000000000815260040161044890610a5b565b60405180910390fd5b600160009054906101000a900473ffffffffffffffffffffffffffffffffffffffff1673ffffffffffffffffffffffffffffffffffffffff166323b872dd3330846040518463ffffffff1660e01b81526004016104b093929190610a7b565b6020604051808303816000875af11580156104cf573d6000803e3d6000fd5b505050506040513d601f19601f820116820180604052508101906104f391906109e2565b50604051806040016040528082815260200142815250600260003373ffffffffffffffffffffffffffffffffffffffff1673ffffffffffffffffffffffffffffffffffffffff1681526020019081526020016000206000820151816000015560208201518160010155905050600160008190555050565b600160009054906101000a900473ffffffffffffffffffffffffffffffffffffffff1681565b600080fd5b600073ffffffffffffffffffffffffffffffffffffffff82169050919050565b60006105c082610595565b9050919050565b6105d0816105b5565b81146105db57600080fd5b50565b6000813590506105ed816105c7565b92915050565b60006020828403121561060957610608610590565b5b6000610617848285016105de565b91505092915050565b6000819050919050565b61063381610620565b82525050565b600060408201905061064e600083018561062a565b61065b602083018461062a565b9392505050565b6000602082019050610677600083018461062a565b92915050565b61068681610620565b811461069157600080fd5b50565b6000813590506106a38161067d565b92915050565b6000602082840312156106bf576106be610590565b5b60006106cd84828501610694565b91505092915050565b6000819050919050565b60006106fb6106f66106f184610595565b6106d6565b610595565b9050919050565b600061070d826106e0565b9050919050565b600061071f82610702565b9050919050565b61072f81610714565b82525050565b600060208201905061074a6000830184610726565b92915050565b600082825260208201905092915050565b7f5265656e7472616e637947756172643a207265656e7472616e742063616c6c00600082015250565b6000610797601f83610750565b91506107a282610761565b602082019050919050565b600060208201905081810360008301526107c68161078a565b9050919050565b7f4e487b7100000000000000000000000000000000000000000000000000000000600052601160045260246000fd5b600061080782610620565b915061081283610620565b925082820190508082111561082a576108296107cd565b5b92915050565b7f5374616b696e6720706572696f64206e6f74206f766572000000000000000000600082015250565b6000610866601783610750565b915061087182610830565b602082019050919050565b6000602082019050818103600083015261089581610859565b9050919050565b60006108a782610620565b91506108b283610620565b92508282039050818111156108ca576108c96107cd565b5b92915050565b60006108db82610620565b91506108e683610620565b92508282026108f481610620565b9150828204841483151761090b5761090a6107cd565b5b5092915050565b7f4e487b7100000000000000000000000000000000000000000000000000000000600052601260045260246000fd5b600061094c82610620565b915061095783610620565b92508261096757610966610912565b5b828204905092915050565b61097b816105b5565b82525050565b60006040820190506109966000830185610972565b6109a3602083018461062a565b9392505050565b60008115159050919050565b6109bf816109aa565b81146109ca57600080fd5b50565b6000815190506109dc816109b6565b92915050565b6000602082840312156109f8576109f7610590565b5b6000610a06848285016109cd565b91505092915050565b7f43616e6e6f74207374616b65203020746f6b656e730000000000000000000000600082015250565b6000610a45601583610750565b9150610a5082610a0f565b602082019050919050565b60006020820190508181036000830152610a7481610a38565b9050919050565b6000606082019050610a906000830186610972565b610a9d6020830185610972565b610aaa604083018461062a565b94935050505056fea264697066735822122029f4aee7c83e2fe5d68a81124da49cb44cc4dfc165654750d34924e66d27662564736f6c63430008140033",
  "linkReferences": {},
  "deployedLinkReferences": {}
}